:10135B0012011101000000406A0E0C033001010262
:10136B0000010403090426035400720075006C008D
:10137B0079004500720067006F006E006F006D0012
:10138B00690063002E0063006F006D00440354007E
:10139B00720075006C007900200045007200670038
:1013AB006F006E006F006D0069006300200043004A
:1013BB006F006D00700075007400650072002000F6
:1013CB004B006500790062006F00610072006400E1
:0E13DB000E03360032003100300033003100C6
:101AF00012006E12157B12007E1219CD121477801F
:011B0000F2F2
:101ADC00C28C7800EFF2758A18758CFCD28C780069
:041AEC00E270FB2287
:030065008FE72200
:03007B00021A570F
:101A5700C0E0C0F0C083C082C0D075D0187801E262
:101A6700F5E1120960D0D0D082D083D0F0D0E03237
:03006B0002164C2E
:10164C00C0E0C083C082C0D075D0107801E2F5E153
:10165C0075D5FF75D60075D700E5BF30E1FB781462
:10166C00E2600790FFC9E04420F07F04121ADC907E
:10167C00FFCCE04402F0E030E1F57814E260079032
:0F168C00FFC9E04420F0D0D0D082D083D0E0322C
:03000B00021A14C2
:101A1400C0E0C0D075D0087801E2F5E1C28C18E2CC
:101A2400600BE214F2758A18758CFCD28CD0D0D07D
:021A3400E0329E
:1015E400E4F5A875ADA075AE20F5D075B81275896F
:1015F40021C28CD2A97801E5E1F2E24437F275C741
:101604005843BF04E5BF30E1FBD2AF43BF087F01BD
:10161400121ADC90FFCCE04401F0E030E0F57F04E6
:10162400121ADC90FFCCE04402F0E030E1F543BF55
:10163400207591FF7592FF7595FF7596FF75B1182A
:0816440075B2187FFF021ADCE9
:0C006E001215E4121AC612177E021805C3
:10187C00FEFFFFFDFFFFFBFFFFF7FFFFEFFFFFDFAB
:10188C00FFFFBFFFFF7FFFFFFFFEFFFFFDFFFFFB23
:10189C00FFFFF7FFFFEFFFFFDFFFFFBFFFFF7FFF44
:0918AC00FFFFF7FFFFEF0000E76A
:10177E00E4F5207803F27807F27805F218F278385B
:10178E00F67823F6783EF618F6FE7F12FDFB7A0009
:10179E00792612105CE4784AF6FE7F08FDFB7A008B
:1017AE00794B12105C7821765AE408F67845F67873
:0517BE0047F618F622B9
:091B3D00D2B5D2B6D2B7D2E8222B
:101AB000A201B392B6A202B392B77821E6B45A0358
:061AC000D2E822C2E82278
:101A94007FFA121AA57FFA121AA57FFA121AA57FE5
:011AA400FA47
:0B1AA500EFD394004004001F80F622E5
:10169B00EF75F003A4247CF582E43418F583E4930E
:1016AB00F590EF75F003A4247DF582E43418F583EF
:1016BB00E493F5A0EF75F003A4247EF582E43418CF
:1016CB00F583E49352B07F0A121AA57825A680E61B
:0E16DB00F4F67590FF75A0FF43B018E6FF22ED
:10184100E47853F67856F67853E6FFC394085029A6
:1018510074807E00C8EFC8088006CEA2E713CE13BD
:10186100D8F8FF7824E6FDEF5D6009785606E6B406
:0B1871000202D32278530680CEC3226F
:1018EC007823E604FF7853F6BF1202E4F67853E649
:1018FC00FF782366601A12169B7856EFF67824E66A
:10190C006F7002D322785306E6B412E1E4F680DD60
:02191C00C322E4
:101B120012184150081218EC50037F00227F002255
:070A6F0078467601E408F669
:100A76007847E6241914B413004003020B61900A68
:100A86009275F003A4C58325F0C58373020ACB02D1
:100A96000AD3020ADB020AE3020AEB020AF3020A9B
:100AA600FB020B03020B0B020B13020B1B020B4187
:100AB600020B29020B31020B39020B23020B4902EE
:100AC6000B51020B59784876010876012278487650
:100AD600010876022278487601087603227848765D
:100AE6000108760422784876010876052278487649
:100AF6000108760622784876010876072278487635
:100B06000108760822784876010876092278487620
:100B16000108760A227848760108760B227848760C
:100B26000180247848760108760D227848760108F7
:100B3600760E227848760108760F227848760108E4
:100B4600760C2278487602087610227848760208D3
:100B5600761122784876020876122278487601E4E1
:030B660008F6226C
:100C6100E47853F6785676017825E6792467F678A4
:100C710053E6C394084003020D437925E77856569D
:100C81007003020D377823E633333354F8783BF69B
:100C91007853E6783B26F630E907E6FF121B4680DB
:100CA10007783BE6FF120003783CEFF620B20878A4
:100CB1003CE6B46502762C784DE6FF64DF70297856
:100CC10021E6645A7022783CE6FEC3943A4019EE5C
:100CD100D3944550137847E67035187601783CE691
:100CE10024AFF67847F6801DEF64DF7027783CE685
:100CF100644C70207821E6B45A1A7847E6701018CF
:100D010076010876F5120A76780774CCF2802712FC
:100D11000A6F8022784DE6701908E670157807E2AF
:100D2100B4CC0F7821E6B45A09120A6FE47807F2BD
:100D31008004783E76017853067856E625E0F6027F
:030D41000C702211
:1013E900783CE6FF54F864E07066EF2420B4080006
:1013F900507B90140975F003A4C58325F0C5837348
:1014090002142102142802142F02143602143D0278
:10141900144402144B021452784BE64401F6227824
:101429004BE64402F622784BE64404F622784BE672
:101439004408F622784BE64410F622784BE644201D
:10144900F622784BE64440F622784BE64480F622B1
:10145900784AE6FFB40605783D760122783CE6FE37
:0E146900744D2FF8EEF6784A06E4783CF62231
:101B01007805E2700B783EE6B40105780574EAF2D7
:011B110022B1
:10084B00E47853F6785676017853E6C39408400360
:10085B0002095F7924E7785656700302095378230F
:10086B00E633333354F8783BF67853E6783B26F689
:10087B0030E907E6FF121B468007783BE6FF1200C4
:10088B0003783CEFF620B208783CE6B46502762C90
:10089B0030B5030209507821E6645A60030209500F
:1008AB00783CE6FFB42405765F02094DEFB42507CB
:1008BB00783C766002094DEFB42607783C766102EE
:1008CB00094DEFB41806783C765C8076EFB40C06D5
:1008DB00783C765D806CEFB41206783C765E806275
:1008EB00EFB41306783C76548058EFB40D06783C81
:1008FB007659804EEFB40E06783C765A8044EFB4AE
:10090B000F06783C765B803AEFB43306783C76552D
:10091B008030EFB41006783C76628026EFB4370651
:10092B00783C7663801CEFB42D06783C76568012AB
:10093B00EFB42E06783C76578008EFB42807783C46
:10094B007658121B011213E97853067856E625E008
:05095B00F60208532222
:10157B007823E6B41202E4F67823E6FF12169B7882
:10158B0024EFF618E62426F8E66F60167F64121A2D
:10159B00A57823E6FF12169B7856EFF67824E66FB4
:1015AB0070D6E4783DF67824E66007121B12783D7E
:1015BB00EFF6783DE6701B7823E62426F8E67825CF
:1015CB00F6120C617824E6FF18E62426F8EFF612E3
:0915DB00084B121A9E7823062227
:10191E00784BE6FFB40205784EE66005E47822F6D1
:10192E0022EFB40217784DE6B44511782206E6B4DC
:0D193E00020A18E6F4F6E408F6121AB022C8
:080B6900E6244DF8E6783CF6A5
:100B7100E47859F608F6783CE67003020C5F13132B
:100B810013541F902800937856F6783CE654077961
:100B910053F77853E6FF7856E6FEC8EFC80880029F
:100BA100C313D8FC30E003020C5F902820E4937853
:100BB10056F6087628087621E47854F67954E7C386
:100BC1007856964003020C5F08E6FE08E6F5828E31
:100BD10083E493783C667076784BE65407FF783F60
:100BE100F6784BE6C454074F783FF6E47853F6782D
:100BF10057E6FE08E6F5828E83E493783C6670380A
:100C01000493783F6670337857E6FE08E6F5828EE6
:100C11008374029308F67857E6FE08E6F5828E8320
:100C2100740393785AF67857E6FE08E6F5828E83C8
:100C31007404937840F6D322C3227858740526F6BB
:100C410018E436F6785306E6640870A3C322785890
:100C5100740526F618E436F6785406020BBDC32255
:10043D007859E6FF08E678570205BB7859E6FE08BD
:10044D00E6F5828E83E4937855F6785A06E61870B1
:10045D000106E47856F67854F67954E7C378559644
:10046D00400302057AC2AF90FFF17401F0E47853B6
:10047D00F67853E6FFC394085017EF785A26FFE439
:10048D0018368F82F583E49390FFF3F0785306804E
:10049D00E07853E6785A26FFE418368F82F583E428
:1004AD00937842F6785306E6785A26FFE418368F8D
:1004BD0082F583E4937841F6E654F07944F7E654F7
:1004CD000FF6783876017853E690FFF6F090FFF14D
:1004DD00E4F0D2AF7838E6640160F9785A740A26F0
:1004ED00F618E436F6784376157843E670FB7844D3
:1004FD00E620E731C2AF90FFF17401F0E47853F6D6
:10050D0090FFF3E4F0785306E6B408F478387601FA
:10051D007853E690FFF6F090FFF1E4F0D2AF783823
:10052D00E6640160F97842E61846603B784376321E
:10053D007843E670FB7842E616187001167842E6AD
:10054D0018466023784376327843E660107856E695
:10055D0070F67F1212169B7856EFF680EB7842E616
:10056D00161870D91680D67854060204667840E6BF
:10057D007002D3227856E66002D322784376327821
:10058D0043E6600D7F1212169B7856EFF660F0D39E
:10059D0022784376327843E6600D7F1212169B78EF
:1005AD0056EFF660F0D3227857E6FF08E608CFF64F
:0605BD0008EFF6020448FD
:10007E007815E2700302043C7823E66412600302F2
:10008E0003E0783DE66052E4784BF608F608760118
:10009E00087601087601087601087601087601C215
:1000AE00AF90FFF104F0E408F67853E6244BF8E63F
:1000BE0090FFF3F0785306E6B408EE7838760178C0
:1000CE0053E690FFF6F090FFF1E4F0D2AF7838E609
:1000DE00640160030203B480F4783EE67003020309
:1000EE00B412191E7821E6645A600302030C784D8F
:1000FE00E664EE600508E6B4EE0B784DE6600408A3
:10010E00E67002B2B530B10A784DE6B46404768971
:10011E00800B30B108784EE6B464027689784DE6ED
:10012E0064DF600B08E664DF600508E6B4DF0A787A
:10013E0003E270057480F28011784DE6600808E6DF
:10014E00600408E67004E47803F2784DE664DF603C
:10015E000908E664DF6003020206784DE6B439054D
:10016E007649020206784EE6B43905764902020651
:10017E00784FE6B439047649807E784DE6B4EE04C5
:10018E0076468074784EE6B4EE047646806A784FF2
:10019E00E6B4EE0476468060784BE630E30AE65429
:1001AE00F7F6784E76478050784DE6B42207784BB6
:1001BE00E644808018784EE6B42207784BE64480F9
:1001CE00801D784DE6B4230C784BE64410F6784D3E
:1001DE0076488024784EE6B4230C784BE64410F62D
:1001EE00784E76488012784DE6B4290476938008CE
:1001FE00784EE6B42902769320EA0A784DE6B48A60
:10020E0004764C800B20EA08784EE6B48A02764CCF
:10021E00784DE664DF600508E6B4DF1830EA0A7848
:10022E004DE6B48A04768B800B30EA08784EE6B43D
:10023E008A02768B784DE6B4DF0908E6B4CF0476F1
:10024E00478025784EE6B4DF0918E6B4CF0476472A
:10025E008016784DE6B4CF028006784EE6B4CF080D
:10026E00E4F6784BE64408F6784DE6B4DF09E4F69A
:10027E00780374DDF2800D784EE6B4DF07E4F6788D
:10028E00037477F21215027805E2B48807E418F2C7
:10029E000874CCF2C2AF90FFF17401F0E47853F61B
:1002AE007853E6244BF8E690FFF3F0785306E6B465
:1002BE0008EE783876017853E690FFF6F090FFF16D
:1002CE00E4F0D2AF7838E6640160F9784BE660036B
:1002DE000203B4784DE660030203B408E66003023D
:1002EE0003B47804E260030203B408E264CC600352
:1002FE000203B41874FFF2087488F20203B478444F
:10030E00E6B48010784BE6700B784DE670067844B4
:10031E00F60203B4E4784AF6784AE6C3940640033C
:10032E000203B4120B69500C12043D784A0678444D
:10033E007680805DE47844F6C2AF90FFF104F078E9
:10034E004BE690FFF3F008E6F0E47855F6784AE6CF
:10035E00C394065014120B69400F783CE690FFF3DD
:10036E00F0784A0678550680E47855E6C394065030
:10037E000890FFF3E4F00680F07838760190FFF6EF
:10038E007408F090FFF1E4F0D2AF7838E6640160C3
:10039E00F9784AE6C394064003020326E6244DF894
:1003AE00E66003020326784DE670127803E2B4DDB0
:1003BE000C7821E6B45A06784D76DF8015784EE635
:1003CE0070107803E2B4770A7821E6B45A04784EB6
:1003DE0076DF7846E6603BC2AF90FFF17402F0E440
:1003EE007853F67853E62448F8E690FFF3F0785306
:1003FE0006E6B402EE784576017853E690FFF6F005
:10040E0090FFF1E4F0D2AF7845E6640160F9E4784C
:10041E0046F67823E6B41216E4784AF6FE7F08FD17
:0F042E00FB7A00794B12105CE4783EF618F62248
:101502007805E264EA707120B56E20006BC2AF907C
:10151200FFF104F0784BE690FFF3F0E4F07453F03F
:10152200E4F0F0F0F0F07838760190FFF67408F00D
:1015320090FFF1E4F0D2AF7838E6640160F9121A54
:1015420094C2AF90FFF17401F0784BE690FFF3F094
:10155200E4F0F0F0F0F0F0F07838760190FFF674F5
:1015620008F090FFF1E4F0D2AF7838E6640160F958
:09157200121A9E780574CCF222D5
:101477007805E264BB6003021501C2AF90FFF10477
:10148700F0784BE690FFF3F0E4F0784DE6F008E6ED
:10149700F008E6F008E6F008E6F07453F0783876DE
:1014A7000190FFF67408F090FFF1E4F0D2AF7838BE
:1014B700E6640160F9121A94C2AF90FFF17401F06B
:1014C700784BE690FFF3F0E4F0784DE6F008E6F0AD
:1014D70008E6F008E6F008E6F0E4F07838760190E0
:1014E700FFF67408F090FFF1E4F0D2AF7838E664C5
:0B14F7000160F9E47805F2121A9E2251
:1019CD007804E2FF700908E2B4880474BBF222EFD8
:1019DD00C39400400E7805E2B4880818E214F200B2
:0419ED00121A99220F
:101AC600E4780AF20812104300000000780F1210A2
:061AD600430000000022A5
:1019A300780DE2F5E308E2F5E4EFB40205CEEDCEFF
:1019B3008EE2EF4480F5E775E64675E6B9E4F5E7B0
:0A19C300EFB40103AFE2227F00221F
:1019F100E47813F27812E2FF08E2C39F5014E4FD89
:101A01007F031219A3780DE22402F27813E204F2A3
:031A110080E2224E
:1012B600780AE2249A601B2411600302135A7817F5
:1012C6007455F20874AAF2E408F2087428F2E402EB
:1012D6001357E47813F2E4FD7F011219A37813E2A1
:1012E6002417F8EFF2780BE2FC08E2FD08E2FE08AC
:1012F600E22401FFE43EFEE43DFDE43CFC780B12F3
:1013060010377813E204F2E2C3944040C9780FE242
:10131600FC08E2FD08E2FE08E2FFEFC0E008E2FB9F
:10132600D0E0FFC3EF9BFFEE9400FEED9400FDECD2
:101336009400FC780F121037E4FFFEFDFC780FE2F4
:10134600FB08E2F908E2FA08E2CBF8C312102670AD
:0513560003780AF222F9
:100E20007865EFF2780AE270357817E2FF780AF217
:100E30002489600924116003020EF38010780D7478
:100E400028F208E4F278127408F21219F1780D749D
:100E500028F208E4F278117410F208E4F2227865BE
:100E6000E224FEF2E2FFE4FCFDFE780FE2FB08E282
:100E7000F908E2FA08E2CBF8D3121026500A7812E9
:100E8000E27865F2E4780AF2780FE2FC08E2FD0805
:100E9000E2FE08E2FFEFC0E07865E2FBD0E0FFC3CE
:100EA000EF9BFFEE9400FEED9400FDEC9400FC78C7
:100EB0000F121037E47813F27865E2FF7813E2FE40
:100EC000C39F502F74192EF8E2FD7F021219A378E8
:100ED0000BE2FC08E2FD08E2FE08E22401FFE43E2A
:100EE000FEE43DFDE43CFC780B1210377813E2047D
:040EF000F280C522A5
:100D440005010906A101050719E029E71500250198
:100D54007501950881029501750881019503750156
:100D6400050819012903910295057501910195065C
:100D74007508150026FF00050719002AFF008100E9
:100D8400090095407508B100C0050C0901A1018551
:100D94000115012510750895010AAE010A23020AFE
:100DA4008A010A21020A94010A92010A830109B6FE
:100DB40009CD09B509E209EA09E909B809B70A96AA
:100DC400018160C005010980A10185021501250387
:100DD4007502950109820981098381607506810381
:100DE400C009023B00020100A03209040000010313
:100DF40001010009211101000122490007058103B5
:100E040008000A090401000103000000092111017E
:0C0E140000012258000705820308000AB4
:1018050090FFD9E4F090FFF1F090FFE17405F0E06E
:1018150044C0F090FFF47480F090FFE4F090FFDA9C
:101825007497F090FFD97406F0785B7440F2E47811
:0C18350015F218F290FFC9E04480F02288
:10194B007865EBF208EAF208E9F2E4FFEFC39D5089
:10195B001B90FFE3E0FE7865E2FB08E2FA08E2F990
:0D196B008F82758300EE1210040F80E022C1
:101978007865EBF208EAF208E9F2E4FFEFC39D505C
:10198800197865E2FB08E2FA08E2F98F82758300AC
:0B199800120FD790FFF3F00F80E22247
:1010880090FFF47480F090FFE2E0543060537816DB
:1010980074F0F290FFE2E020E5F990FFE2E030E43E
:1010A800F990FFE2E054EFF090FFDB7402F090FF5C
:1010B800E6E07864F27BFE7A007917E2FD12194BBC
:1010C80090FFE2E0543070CB90FFE1E0543FF0A392
:1010D800E054BFF07864E2FF785CE4F208EFF28055
:1010E8005C7816E26433704990FFE6E07864F2E2D7
:1010F800FFC3785DE29FF218E29400F27BFE7A006B
:1011080079177864E2FD12194B7864E2FFB4400560
:10111800120E2080087817E2F520121AB0785DE2E6
:10112800700218E2701790FFF6F0781674A5F28036
:101138000C781674A5F290FFE1E044C0F090FFE44B
:05114800E04410F0225C
:10000E00785CE4F2087402F2E47818F218E2540311
:10001E00146043146014240270357814E26006787C
:10002E00177402F222E47817F222781BE2540F9032
:10003E00FFF1F090FFE1E020E704E030E6077817EB
:10004E007401F28004E47817F290FFF1E4F022904C
:07005E00FFE1E044C0F022C5
:101735007817E25403146040146011240270327863
:1017450019E2B40105E47814F22280257819E270D3
:101755001E781BE2540F90FFF1F090FFE1E0543F3B
:10176500F0A37408F090FFF2F090FFF1E4F022800E
:091775000090FFE1E044C0F02205
:1017C3007817E254031460391460122402702B78E2
:1017D30019E2B4010678147401F222801D7819E22B
:1017E3007016781BE2540F90FFF1F090FFE1E04494
:1017F300C0F090FFF1E4F022800090FFE1E044C0EC
:02180300F022D1
:1005C300E47864F2781EE2785FF2781DE27860F2F4
:1005D300781AE224FE602A14604024E270030206C3
:1005E300981470030206C9242160030206FA7BFFF4
:1005F3007A13795B7857EBF208EAF208E9F202061C
:10060300937BFF7A0D79E57857EBF208EAF208E974
:10061300F2900002120FD70206C47819E21460198F
:1006230014602C14604124037055785774FFF2084A
:100633007413F208746DF2804D901369E493603F74
:10064300785774FFF2087413F2087471F2803790CC
:10065300136AE493600F785774FFF2087413F20877
:100663007497F28021801890136BE493600F78578E
:1006730074FFF2087413F20874DBF28009800090AF
:10068300FFE1E044C0F07857E2FB08E2FA08E2F940
:10069300120FBE802C781BE27857600D74FFF208AE
:1006A300740EF2087410F2800B74FFF208740DF2EA
:1006B3000874F7F27857E2FB08E2FA08E2F9120F3E
:1006C300BE7865F28038781BE27857601074FFF2C9
:1006D30008740DF208748DF2900E17800E74FFF2F9
:1006E30008740DF2087444F2900DFEE4937865F2F9
:1006F300A3E49318F2800790FFE1E044C0F078642C
:10070300E2FE08E2FF785FE2FC08E2FDD39FEC9E85
:10071300400E7864E2FF08E2785CCFF208EFF22241
:08072300785CECF208EDF22213
:1016E9007819E2785EF2602D7F0190FFF1EFF090BA
:1016F900FFE17405F090FFE47480F090FFF4F0903E
:10170900FFE27408F090FFF2F00FEFB406DC7815F1
:101719007401F280117F0190FFF1EFF090FFE1E495
:0C172900F00FEFB406F190FFF1E4F022A5
:101A3600781BE21460030470107819E2D394004016
:101A460002800690FFF6E4F02290FFE1E044C0F049
:011A5600226D
:101A7700785CE4F20804F2781BE214600304700552
:0D1A8700E47817F22290FFE1E044C0F02265
:100EF4007816E2645A7049785BE2FFFD08E2FA086A
:100F0400E2FBD39DEA940078644004EFF28002EBA4
:100F1400F27857E2FB08E2FA08E2F97864E2FD129B
:100F240019787864E2FF90FFF6F07E00C3785DE202
:100F34009FF218E29EF27859E22FF218E23EF22272
:100F44007816E264227050785BE2FFFD08E2FA084A
:100F5400E2FBD39DEA940078644004EFF28002EB54
:100F6400F27864E2B440051212B6800A7864E26052
:100F7400057817E520F27BFE7A0079177864E2FDA4
:100F84001219787864E2FF90FFF6F0C3785DE29F6F
:100F9400F218E29400F22290FFE1E044C0F07816E7
:100FA400E2B45507785EE290FFD8F0780AE2B444E0
:0A0FB4000830EB057F68120065228B
:10114D007818E2B40D00400302120090115FF828E8
:10115D00287302118602119002120002119A0212D6
:10116D00000211A40211B10212000211BB0211CF33
:10117D000211E50211DD0211F07816745AF2120017
:10118D000E805D781674A5F2121735803D781674B1
:10119D00A5F21217C3803378167455F27819E278D8
:1011AD005EF280267816745AF21205C380327816D4
:1011BD00745AF2785EE27817F2785CE4F20804F281
:1011CD00801E781674A5F21216E990FFF6E4F0224F
:1011DD00781674A5F2021A367816745AF2121A7726
:1011ED00020EF4781674A5F290FFF6E4F0785CF236
:0B11FD0008F22290FFE1E044C0F02265
:101208007818E214603124FE601A24FA60701460C1
:1012180050146059240960030212AE7816745AF209
:10122800783980077816745AF2783AE67817F2789F
:101238005CE4F20804802678167422F2781EE2FF35
:10124800785CE4F208EFF2795DE3F8E4F3E819F387
:10125800781DE2FF785DE22FF218E23400F2020E08
:10126800F4781674A5F2781AE27839800A78167438
:10127800A5F27819E2783AF690FFF6E4F0227816AB
:101288007433F2781EE2FF785CE4F208EFF2795DDD
:10129800E3F8E4F3E819F3781DE2FF785DE22FF252
:0E12A80018E23400F22290FFE1E044C0F02290
:1018B500785774FEF2087400F2087417F212108853
:1018C5007816E2B4F020E4785CF208F27817E25476
:1018D5006024E060072420700602114D0212089072
:0718E500FFE1E044C0F02226
:061B220090FFF1F07F10BE
:091B280090FFF4E0540F4FF0228D
:1009600090FFC9E07863F2E2FF540F70030209FBC5
:10097000EF30E05EE254F0F24401F0E0F2E2540FB6
:100980006003020A6E121B3D7814E2B40110E4F514
:1009900090F5A053B0E775D5FFF5D675D7FF43871F
:1009A000027F01121ADC7814E2B40119E5D770094C
:1009B00090FFC9E04420F08003E4F5D77590FF75FF
:1009C000A0FF43B0187815E264016003020A6E02CA
:1009D0001AB07863E2FF30E20F54F0F2440490FF63
:1009E000C9F012177E0218057863E220E103020ABB
:1009F0006E54F0F2440290FFC9F02290FFDBE078E1
:100A000063F2E2FD30E2127404F07401121B2278EA
:100A100038E664017046F68043ED30E41590FFDB64
:100A20007410F07402121B227845E66401702DF6F2
:100A3000802A7863E230E11090FFDB7402F090FFCF
:100A4000F1E4F01218B580147863E230E00E90FF04
:100A5000DB7401F090FFF1E4F0120EF47863E23001
:0F0A6000E70C90FFDB7480F07843E6600116220C
:10072B0000008A000064350000000000000000009B
:10073B00041F2BE31E141D008781392C83E0E48BEF
:10074B00004FE76552008A88E25600EE890087E683
:10075B000048000000E1E50000474858DF88000032
:10076B005C465565545F59571A3A4E3B4B291B163D
:10077B005E3C4C3D4961635B072008250C0E360639
:10078B000A211722150905190D2318241C0B10110A
:10079B00313E283F2E302A502F402D412612370F45
:1007AB0034425143273313385D444D454A60625AF6
:1007BB0000008A000064350000000000000000000B
:1007CB00041F2BCF1E141D00E481392C83E3E78B10
:1007DB00004FE76552008A88E25600EE890087E6F3
:1007EB000048000000E1E50000474858DFE000004A
:1007FB005C465565545F59571A3A4E3B4B291B16AD
:10080B005E3C4C3D4961635B072008250C0E3606A8
:10081B000A211722150905190D2318241C0B101179
:10082B00313E283F2E302A502F402D412612370FB4
:10083B0034425143273313385D444D454A60625A65
:06000300EF90072B93FFB4
:0100090022D4
:061B4600EF9007BB93FFC6
:011B4C002276
:03000000021B31AF
:0C1B3100787FE4F6D8FD75815A021AF0A6
:100FBE00BB010689828A83E0225002E722BBFE0231
:090FCE00E32289828A83E4932264
:100FD700BB010CE58229F582E5833AF583E02250CF
:100FE70006E92582F8E622BBFE06E92582F8E22219
:0D0FF700E58229F582E5833AF583E4932233
:10100400F8BB010DE58229F582E5833AF583E8F022
:10101400225006E92582C8F622BBFE05E92582C8CE
:02102400F222B6
:10102600EB9FF5F0EA9E42F0E99D42F0E89C45F020
:011036002297
:0C103700ECF208EDF208EEF208EFF222F5
:10104300D083D082E493F208740193F2087402937C
:09105300F208740393F2740473B3
:10105C00EF4E6012EF60010EEDBB010B89828A83AB
:10106C00F0A3DFFCDEFA2289F05007F709DFFCA9B8
:0C107C00F022BBFEFCF309DFFCA9F0220F
:00000001FF
